{
  "_format": "hh-sol-artifact-1",
  "contractName": "Gehna",
  "sourceName": "contracts/Gehna.sol",
  "abi": [
    {
      "inputs": [],
      "stateMutability": "nonpayable",
      "type": "constructor"
    },
    {
      "anonymous": false,
      "inputs": [
        {
          "indexed": false,
          "internalType": "string",
          "name": "newTruth",
          "type": "string"
        },
        {
          "indexed": true,
          "internalType": "address",
          "name": "sender",
          "type": "address"
        }
      ],
      "name": "TruthRevealed",
      "type": "event"
    },
    {
      "inputs": [],
      "name": "owner",
      "outputs": [
        {
          "internalType": "address",
          "name": "",
          "type": "address"
        }
      ],
      "stateMutability": "view",
      "type": "function"
    },
    {
      "inputs": [
        {
          "internalType": "string",
          "name": "_truth",
          "type": "string"
        }
      ],
      "name": "setTruth",
      "outputs": [],
      "stateMutability": "nonpayable",
      "type": "function"
    }
  ],
  "bytecode": "0x60a0604052348015600f57600080fd5b503373ffffffffffffffffffffffffffffffffffffffff1660808173ffffffffffffffffffffffffffffffffffffffff168152505060805161095961005f60003960006101c301526109596000f3fe608060405234801561001057600080fd5b50600436106100365760003560e01c8063661c765a1461003b5780638da5cb5b14610057575b600080fd5b6100556004803603810190610050919061033f565b610075565b005b61005f6101c1565b60405161006c91906103c9565b60405180910390f35b600060023060405160200161008a919061042c565b6040516020818303038152906040526040516100a691906104b8565b602060405180830381855afa1580156100c3573d6000803e3d6000fd5b5050506040513d601f19601f820116820180604052508101906100e69190610505565b905060008160001c90508073ffffffffffffffffffffffffffffffffffffffff163373ffffffffffffffffffffffffffffffffffffffff161461015e576040517f08c379a0000000000000000000000000000000000000000000000000000000008152600401610155906105b5565b60405180910390fd5b826000908161016d91906107f6565b503373ffffffffffffffffffffffffffffffffffffffff167f037d4eb725e1d9bea9ed0fce58c3d9bec1fae4d6fe87c9d9368f996880e4640c846040516101b49190610901565b60405180910390a2505050565b7f000000000000000000000000000000000000000000000000000000000000000081565b6000604051905090565b600080fd5b600080fd5b600080fd5b600080fd5b6000601f19601f8301169050919050565b7f4e487b7100000000000000000000000000000000000000000000000000000000600052604160045260246000fd5b61024c82610203565b810181811067ffffffffffffffff8211171561026b5761026a610214565b5b80604052505050565b600061027e6101e5565b905061028a8282610243565b919050565b600067ffffffffffffffff8211156102aa576102a9610214565b5b6102b382610203565b9050602081019050919050565b82818337600083830152505050565b60006102e26102dd8461028f565b610274565b9050828152602081018484840111156102fe576102fd6101fe565b5b6103098482856102c0565b509392505050565b600082601f830112610326576103256101f9565b5b81356103368482602086016102cf565b91505092915050565b600060208284031215610355576103546101ef565b5b600082013567ffffffffffffffff811115610373576103726101f4565b5b61037f84828501610311565b91505092915050565b600073ffffffffffffffffffffffffffffffffffffffff82169050919050565b60006103b382610388565b9050919050565b6103c3816103a8565b82525050565b60006020820190506103de60008301846103ba565b92915050565b60008160601b9050919050565b60006103fc826103e4565b9050919050565b600061040e826103f1565b9050919050565b610426610421826103a8565b610403565b82525050565b60006104388284610415565b60148201915081905092915050565b600081519050919050565b600081905092915050565b60005b8381101561047b578082015181840152602081019050610460565b60008484015250505050565b600061049282610447565b61049c8185610452565b93506104ac81856020860161045d565b80840191505092915050565b60006104c48284610487565b915081905092915050565b6000819050919050565b6104e2816104cf565b81146104ed57600080fd5b50565b6000815190506104ff816104d9565b92915050565b60006020828403121561051b5761051a6101ef565b5b6000610529848285016104f0565b91505092915050565b600082825260208201905092915050565b7f4745484e412052454a4543545320594f553a20596f7520617265206e6f74207460008201527f6865205265666c656374696f6e206f662074686520566f69642e000000000000602082015250565b600061059f603a83610532565b91506105aa82610543565b604082019050919050565b600060208201905081810360008301526105ce81610592565b9050919050565b600081519050919050565b7f4e487b7100000000000000000000000000000000000000000000000000000000600052602260045260246000fd5b6000600282049050600182168061062757607f821691505b60208210810361063a576106396105e0565b5b50919050565b60008190508160005260206000209050919050565b60006020601f8301049050919050565b600082821b905092915050565b6000600883026106a27fffffffffffffffffffffffffffffffffffffffffffffffffffffffffffffffff82610665565b6106ac8683610665565b95508019841693508086168417925050509392505050565b6000819050919050565b6000819050919050565b60006106f36106ee6106e9846106c4565b6106ce565b6106c4565b9050919050565b6000819050919050565b61070d836106d8565b610721610719826106fa565b848454610672565b825550505050565b600090565b610736610729565b610741818484610704565b505050565b5b818110156107655761075a60008261072e565b600181019050610747565b5050565b601f8211156107aa5761077b81610640565b61078484610655565b81016020851015610793578190505b6107a761079f85610655565b830182610746565b50505b505050565b600082821c905092915050565b60006107cd600019846008026107af565b1980831691505092915050565b60006107e683836107bc565b9150826002028217905092915050565b6107ff826105d5565b67ffffffffffffffff81111561081857610817610214565b5b610822825461060f565b61082d828285610769565b600060209050601f831160018114610860576000841561084e578287015190505b61085885826107da565b8655506108c0565b601f19841661086e86610640565b60005b8281101561089657848901518255600182019150602085019450602081019050610871565b868310156108b357848901516108af601f8916826107bc565b8355505b6001600288020188555050505b505050505050565b60006108d3826105d5565b6108dd8185610532565b93506108ed81856020860161045d565b6108f681610203565b840191505092915050565b6000602082019050818103600083015261091b81846108c8565b90509291505056fea2646970667358221220197c83db79a18088eab0e7623bb32de4b556c65abcb2b4a40d40318f91a8988b64736f6c634300081c0033",
  "linkReferences": {},
  "deployedLinkReferences": {}
}